{
  "_format": "hh-sol-artifact-1",
  "contractName": "CertificateContract",
  "sourceName": "contracts/CertificateContract.sol",
  "abi": [
    {
      "inputs": [
        {
          "internalType": "address",
          "name": "initialOwner",
          "type": "address"
        }
      ],
      "stateMutability": "nonpayable",
      "type": "constructor"
    },
    {
      "inputs": [
        {
          "internalType": "address",
          "name": "owner",
          "type": "address"
        }
      ],
      "name": "OwnableInvalidOwner",
      "type": "error"
    },
    {
      "inputs": [
        {
          "internalType": "address",
          "name": "account",
          "type": "address"
        }
      ],
      "name": "OwnableUnauthorizedAccount",
      "type": "error"
    },
    {
      "anonymous": false,
      "inputs": [
        {
          "indexed": true,
          "internalType": "address",
          "name": "previousOwner",
          "type": "address"
        },
        {
          "indexed": true,
          "internalType": "address",
          "name": "newOwner",
          "type": "address"
        }
      ],
      "name": "OwnershipTransferred",
      "type": "event"
    },
    {
      "inputs": [
        {
          "internalType": "address",
          "name": "",
          "type": "address"
        }
      ],
      "name": "certificates",
      "outputs": [
        {
          "internalType": "address",
          "name": "recipient",
          "type": "address"
        },
        {
          "internalType": "string",
          "name": "encryptedCID",
          "type": "string"
        },
        {
          "internalType": "bytes32",
          "name": "dataHash",
          "type": "bytes32"
        },
        {
          "internalType": "bytes",
          "name": "signature",
          "type": "bytes"
        },
        {
          "internalType": "uint256",
          "name": "status",
          "type": "uint256"
        }
      ],
      "stateMutability": "view",
      "type": "function"
    },
    {
      "inputs": [
        {
          "internalType": "address",
          "name": "recipient",
          "type": "address"
        },
        {
          "internalType": "string",
          "name": "encryptedCID",
          "type": "string"
        },
        {
          "internalType": "bytes32",
          "name": "dataHash",
          "type": "bytes32"
        },
        {
          "internalType": "bytes",
          "name": "signature",
          "type": "bytes"
        }
      ],
      "name": "issueCertificate",
      "outputs": [],
      "stateMutability": "nonpayable",
      "type": "function"
    },
    {
      "inputs": [],
      "name": "owner",
      "outputs": [
        {
          "internalType": "address",
          "name": "",
          "type": "address"
        }
      ],
      "stateMutability": "view",
      "type": "function"
    },
    {
      "inputs": [],
      "name": "renounceOwnership",
      "outputs": [],
      "stateMutability": "nonpayable",
      "type": "function"
    },
    {
      "inputs": [
        {
          "internalType": "address",
          "name": "recipient",
          "type": "address"
        }
      ],
      "name": "revokeCertificate",
      "outputs": [],
      "stateMutability": "nonpayable",
      "type": "function"
    },
    {
      "inputs": [
        {
          "internalType": "address",
          "name": "newOwner",
          "type": "address"
        }
      ],
      "name": "transferOwnership",
      "outputs": [],
      "stateMutability": "nonpayable",
      "type": "function"
    },
    {
      "inputs": [
        {
          "internalType": "address",
          "name": "recipient",
          "type": "address"
        },
        {
          "internalType": "string",
          "name": "encryptedCID",
          "type": "string"
        },
        {
          "internalType": "bytes32",
          "name": "dataHash",
          "type": "bytes32"
        },
        {
          "internalType": "bytes",
          "name": "signature",
          "type": "bytes"
        }
      ],
      "name": "updateCertificate",
      "outputs": [],
      "stateMutability": "nonpayable",
      "type": "function"
    },
    {
      "inputs": [
        {
          "internalType": "address",
          "name": "recipient",
          "type": "address"
        }
      ],
      "name": "verifyCertificate",
      "outputs": [
        {
          "internalType": "bool",
          "name": "",
          "type": "bool"
        }
      ],
      "stateMutability": "view",
      "type": "function"
    },
    {
      "inputs": [
        {
          "internalType": "address",
          "name": "studentAddress",
          "type": "address"
        }
      ],
      "name": "viewCertificate",
      "outputs": [
        {
          "internalType": "string",
          "name": "encryptedCID",
          "type": "string"
        },
        {
          "internalType": "bytes32",
          "name": "dataHash",
          "type": "bytes32"
        },
        {
          "internalType": "bytes",
          "name": "signature",
          "type": "bytes"
        }
      ],
      "stateMutability": "view",
      "type": "function"
    }
  ],
  "bytecode": "0x60806040523480156200001157600080fd5b5060405162001bec38038062001bec8339818101604052810190620000379190620001f4565b80600073ffffffffffffffffffffffffffffffffffffffff168173ffffffffffffffffffffffffffffffffffffffff1603620000ad5760006040517f1e4fbdf7000000000000000000000000000000000000000000000000000000008152600401620000a4919062000237565b60405180910390fd5b620000be81620000c660201b60201c565b505062000254565b60008060009054906101000a900473ffffffffffffffffffffffffffffffffffffffff169050816000806101000a81548173ffffffffffffffffffffffffffffffffffffffff021916908373ffffffffffffffffffffffffffffffffffffffff1602179055508173ffffffffffffffffffffffffffffffffffffffff168173ffffffffffffffffffffffffffffffffffffffff167f8be0079c531659141344cd1fd0a4f28419497f9722a3daafe3b4186f6b6457e060405160405180910390a35050565b600080fd5b600073ffffffffffffffffffffffffffffffffffffffff82169050919050565b6000620001bc826200018f565b9050919050565b620001ce81620001af565b8114620001da57600080fd5b50565b600081519050620001ee81620001c3565b92915050565b6000602082840312156200020d576200020c6200018a565b5b60006200021d84828501620001dd565b91505092915050565b6200023181620001af565b82525050565b60006020820190506200024e600083018462000226565b92915050565b61198880620002646000396000f3fe608060405234801561001057600080fd5b50600436106100925760003560e01c8063715018a611610066578063715018a6146101495780638da5cb5b146101535780638dce674a14610171578063cbe26a2a1461018d578063f2fde38b146101a957610092565b806216e526146100975780635f893bfa146100cb57806364dbbaa2146100e75780636b9afc9014610119575b600080fd5b6100b160048036038101906100ac9190610d16565b6101c5565b6040516100c2959493929190610e69565b60405180910390f35b6100e560048036038101906100e09190610d16565b61032b565b005b61010160048036038101906100fc9190610d16565b610402565b60405161011093929190610eca565b60405180910390f35b610133600480360381019061012e9190610d16565b610657565b6040516101409190610f2a565b60405180910390f35b610151610713565b005b61015b610727565b6040516101689190610f45565b60405180910390f35b61018b60048036038101906101869190611162565b610750565b005b6101a760048036038101906101a29190611162565b6108c2565b005b6101c360048036038101906101be9190610d16565b610acb565b005b60016020528060005260406000206000915090508060000160009054906101000a900473ffffffffffffffffffffffffffffffffffffffff169080600101805461020e90611230565b80601f016020809104026020016040519081016040528092919081815260200182805461023a90611230565b80156102875780601f1061025c57610100808354040283529160200191610287565b820191906000526020600020905b81548152906001019060200180831161026a57829003601f168201915b5050505050908060020154908060030180546102a290611230565b80601f01602080910402602001604051908101604052809291908181526020018280546102ce90611230565b801561031b5780601f106102f05761010080835404028352916020019161031b565b820191906000526020600020905b8154815290600101906020018083116102fe57829003601f168201915b5050505050908060040154905085565b610333610b51565b60018060008373ffffffffffffffffffffffffffffffffffffffff1673ffffffffffffffffffffffffffffffffffffffff16815260200190815260200160002060040154146103b7576040517f08c379a00000000000000000000000000000000000000000000000000000000081526004016103ae906112d3565b60405180910390fd5b6002600160008373ffffffffffffffffffffffffffffffffffffffff1673ffffffffffffffffffffffffffffffffffffffff1681526020019081526020016000206004018190555050565b6060600060606000600160008673ffffffffffffffffffffffffffffffffffffffff1673ffffffffffffffffffffffffffffffffffffffff16815260200190815260200160002090508473ffffffffffffffffffffffffffffffffffffffff168160000160009054906101000a900473ffffffffffffffffffffffffffffffffffffffff1673ffffffffffffffffffffffffffffffffffffffff16146104dd576040517f08c379a00000000000000000000000000000000000000000000000000000000081526004016104d490611365565b60405180910390fd5b6001816004015414610524576040517f08c379a000000000000000000000000000000000000000000000000000000000815260040161051b906113f7565b60405180910390fd5b8060010181600201548260030182805461053d90611230565b80601f016020809104026020016040519081016040528092919081815260200182805461056990611230565b80156105b65780601f1061058b576101008083540402835291602001916105b6565b820191906000526020600020905b81548152906001019060200180831161059957829003601f168201915b505050505092508080546105c990611230565b80601f01602080910402602001604051908101604052809291908181526020018280546105f590611230565b80156106425780601f1061061757610100808354040283529160200191610642565b820191906000526020600020905b81548152906001019060200180831161062557829003601f168201915b50505050509050935093509350509193909250565b60008073ffffffffffffffffffffffffffffffffffffffff168273ffffffffffffffffffffffffffffffffffffffff16036106c7576040517f08c379a00000000000000000000000000000000000000000000000000000000081526004016106be90611463565b60405180910390fd5b60018060008473ffffffffffffffffffffffffffffffffffffffff1673ffffffffffffffffffffffffffffffffffffffff16815260200190815260200160002060040154149050919050565b61071b610b51565b6107256000610bd8565b565b60008060009054906101000a900473ffffffffffffffffffffffffffffffffffffffff16905090565b610758610b51565b600073ffffffffffffffffffffffffffffffffffffffff168473ffffffffffffffffffffffffffffffffffffffff16036107c7576040517f08c379a00000000000000000000000000000000000000000000000000000000081526004016107be90611463565b60405180910390fd5b60018060008673ffffffffffffffffffffffffffffffffffffffff1673ffffffffffffffffffffffffffffffffffffffff168152602001908152602001600020600401541461084b576040517f08c379a0000000000000000000000000000000000000000000000000000000008152600401610842906114f5565b60405180910390fd5b6000600160008673ffffffffffffffffffffffffffffffffffffffff1673ffffffffffffffffffffffffffffffffffffffff16815260200190815260200160002090508381600101908161089f91906116c1565b50828160020181905550818160030190816108ba91906117ee565b505050505050565b6108ca610b51565b600073ffffffffffffffffffffffffffffffffffffffff168473ffffffffffffffffffffffffffffffffffffffff1603610939576040517f08c379a000000000000000000000000000000000000000000000000000000000815260040161093090611463565b60405180910390fd5b6000600160008673ffffffffffffffffffffffffffffffffffffffff1673ffffffffffffffffffffffffffffffffffffffff16815260200190815260200160002060040154146109be576040517f08c379a00000000000000000000000000000000000000000000000000000000081526004016109b590611932565b60405180910390fd5b6040518060a001604052808573ffffffffffffffffffffffffffffffffffffffff1681526020018481526020018381526020018281526020016001815250600160008673ffffffffffffffffffffffffffffffffffffffff1673ffffffffffffffffffffffffffffffffffffffff16815260200190815260200160002060008201518160000160006101000a81548173ffffffffffffffffffffffffffffffffffffffff021916908373ffffffffffffffffffffffffffffffffffffffff1602179055506020820151816001019081610a9791906116c1565b50604082015181600201556060820151816003019081610ab791906117ee565b506080820151816004015590505050505050565b610ad3610b51565b600073ffffffffffffffffffffffffffffffffffffffff168173ffffffffffffffffffffffffffffffffffffffff1603610b455760006040517f1e4fbdf7000000000000000000000000000000000000000000000000000000008152600401610b3c9190610f45565b60405180910390fd5b610b4e81610bd8565b50565b610b59610c9c565b73ffffffffffffffffffffffffffffffffffffffff16610b77610727565b73ffffffffffffffffffffffffffffffffffffffff1614610bd657610b9a610c9c565b6040517f118cdaa7000000000000000000000000000000000000000000000000000000008152600401610bcd9190610f45565b60405180910390fd5b565b60008060009054906101000a900473ffffffffffffffffffffffffffffffffffffffff169050816000806101000a81548173ffffffffffffffffffffffffffffffffffffffff021916908373ffffffffffffffffffffffffffffffffffffffff1602179055508173ffffffffffffffffffffffffffffffffffffffff168173ffffffffffffffffffffffffffffffffffffffff167f8be0079c531659141344cd1fd0a4f28419497f9722a3daafe3b4186f6b6457e060405160405180910390a35050565b600033905090565b6000604051905090565b600080fd5b600080fd5b600073ffffffffffffffffffffffffffffffffffffffff82169050919050565b6000610ce382610cb8565b9050919050565b610cf381610cd8565b8114610cfe57600080fd5b50565b600081359050610d1081610cea565b92915050565b600060208284031215610d2c57610d2b610cae565b5b6000610d3a84828501610d01565b91505092915050565b610d4c81610cd8565b82525050565b600081519050919050565b600082825260208201905092915050565b60005b83811015610d8c578082015181840152602081019050610d71565b60008484015250505050565b6000601f19601f8301169050919050565b6000610db482610d52565b610dbe8185610d5d565b9350610dce818560208601610d6e565b610dd781610d98565b840191505092915050565b6000819050919050565b610df581610de2565b82525050565b600081519050919050565b600082825260208201905092915050565b6000610e2282610dfb565b610e2c8185610e06565b9350610e3c818560208601610d6e565b610e4581610d98565b840191505092915050565b6000819050919050565b610e6381610e50565b82525050565b600060a082019050610e7e6000830188610d43565b8181036020830152610e908187610da9565b9050610e9f6040830186610dec565b8181036060830152610eb18185610e17565b9050610ec06080830184610e5a565b9695505050505050565b60006060820190508181036000830152610ee48186610da9565b9050610ef36020830185610dec565b8181036040830152610f058184610e17565b9050949350505050565b60008115159050919050565b610f2481610f0f565b82525050565b6000602082019050610f3f6000830184610f1b565b92915050565b6000602082019050610f5a6000830184610d43565b92915050565b600080fd5b600080fd5b7f4e487b7100000000000000000000000000000000000000000000000000000000600052604160045260246000fd5b610fa282610d98565b810181811067ffffffffffffffff82111715610fc157610fc0610f6a565b5b80604052505050565b6000610fd4610ca4565b9050610fe08282610f99565b919050565b600067ffffffffffffffff82111561100057610fff610f6a565b5b61100982610d98565b9050602081019050919050565b82818337600083830152505050565b600061103861103384610fe5565b610fca565b90508281526020810184848401111561105457611053610f65565b5b61105f848285611016565b509392505050565b600082601f83011261107c5761107b610f60565b5b813561108c848260208601611025565b91505092915050565b61109e81610de2565b81146110a957600080fd5b50565b6000813590506110bb81611095565b92915050565b600067ffffffffffffffff8211156110dc576110db610f6a565b5b6110e582610d98565b9050602081019050919050565b6000611105611100846110c1565b610fca565b90508281526020810184848401111561112157611120610f65565b5b61112c848285611016565b509392505050565b600082601f83011261114957611148610f60565b5b81356111598482602086016110f2565b91505092915050565b6000806000806080858703121561117c5761117b610cae565b5b600061118a87828801610d01565b945050602085013567ffffffffffffffff8111156111ab576111aa610cb3565b5b6111b787828801611067565b93505060406111c8878288016110ac565b925050606085013567ffffffffffffffff8111156111e9576111e8610cb3565b5b6111f587828801611134565b91505092959194509250565b7f4e487b7100000000000000000000000000000000000000000000000000000000600052602260045260246000fd5b6000600282049050600182168061124857607f821691505b60208210810361125b5761125a611201565b5b50919050565b7f4365727469666963617465206e6f7420697373756564206f7220616c7265616460008201527f79207265766f6b65640000000000000000000000000000000000000000000000602082015250565b60006112bd602983610d5d565b91506112c882611261565b604082019050919050565b600060208201905081810360008301526112ec816112b0565b9050919050565b7f4e6f20636572746966696361746520666f756e6420666f72207468697320737460008201527f7564656e74000000000000000000000000000000000000000000000000000000602082015250565b600061134f602583610d5d565b915061135a826112f3565b604082019050919050565b6000602082019050818103600083015261137e81611342565b9050919050565b7f5468697320636572746966696361746520686173206265656e207265766f6b6560008201527f64206f72206e6f74206973737565640000000000000000000000000000000000602082015250565b60006113e1602f83610d5d565b91506113ec82611385565b604082019050919050565b60006020820190508181036000830152611410816113d4565b9050919050565b7f496e76616c696420726563697069656e74206164647265737300000000000000600082015250565b600061144d601983610d5d565b915061145882611417565b602082019050919050565b6000602082019050818103600083015261147c81611440565b9050919050565b7f4365727469666963617465206e6f7420697373756564206f72207265766f6b6560008201527f6400000000000000000000000000000000000000000000000000000000000000602082015250565b60006114df602183610d5d565b91506114ea82611483565b604082019050919050565b6000602082019050818103600083015261150e816114d2565b9050919050565b60008190508160005260206000209050919050565b60006020601f8301049050919050565b600082821b905092915050565b6000600883026115777fffffffffffffffffffffffffffffffffffffffffffffffffffffffffffffffff8261153a565b611581868361153a565b95508019841693508086168417925050509392505050565b6000819050919050565b60006115be6115b96115b484610e50565b611599565b610e50565b9050919050565b6000819050919050565b6115d8836115a3565b6115ec6115e4826115c5565b848454611547565b825550505050565b600090565b6116016115f4565b61160c8184846115cf565b505050565b5b81811015611630576116256000826115f9565b600181019050611612565b5050565b601f8211156116755761164681611515565b61164f8461152a565b8101602085101561165e578190505b61167261166a8561152a565b830182611611565b50505b505050565b600082821c905092915050565b60006116986000198460080261167a565b1980831691505092915050565b60006116b18383611687565b9150826002028217905092915050565b6116ca82610d52565b67ffffffffffffffff8111156116e3576116e2610f6a565b5b6116ed8254611230565b6116f8828285611634565b600060209050601f83116001811461172b5760008415611719578287015190505b61172385826116a5565b86555061178b565b601f19841661173986611515565b60005b828110156117615784890151825560018201915060208501945060208101905061173c565b8683101561177e578489015161177a601f891682611687565b8355505b6001600288020188555050505b505050505050565b60008190508160005260206000209050919050565b601f8211156117e9576117ba81611793565b6117c38461152a565b810160208510156117d2578190505b6117e66117de8561152a565b830182611611565b50505b505050565b6117f782610dfb565b67ffffffffffffffff8111156118105761180f610f6a565b5b61181a8254611230565b6118258282856117a8565b600060209050601f8311600181146118585760008415611846578287015190505b61185085826116a5565b8655506118b8565b601f19841661186686611793565b60005b8281101561188e57848901518255600182019150602085019450602081019050611869565b868310156118ab57848901516118a7601f891682611687565b8355505b6001600288020188555050505b505050505050565b7f436572746966696361746520616c72656164792069737375656420666f72207460008201527f68697320726563697069656e7400000000000000000000000000000000000000602082015250565b600061191c602d83610d5d565b9150611927826118c0565b604082019050919050565b6000602082019050818103600083015261194b8161190f565b905091905056fea2646970667358221220713ee42f5c8b2eebba7d0832fa4fc6667c9d71291007a9715d5bb488c45fa11564736f6c63430008140033",
  "linkReferences": {},
  "deployedLinkReferences": {}
}