{
  "_format": "hh-sol-artifact-1",
  "contractName": "CertificateContract",
  "sourceName": "contracts/CertificateContract.sol",
  "abi": [
    {
      "inputs": [],
      "stateMutability": "nonpayable",
      "type": "constructor"
    },
    {
      "inputs": [
        {
          "internalType": "address",
          "name": "",
          "type": "address"
        }
      ],
      "name": "certificates",
      "outputs": [
        {
          "internalType": "address",
          "name": "recipient",
          "type": "address"
        },
        {
          "internalType": "string",
          "name": "encryptedCID",
          "type": "string"
        },
        {
          "internalType": "bytes32",
          "name": "dataHash",
          "type": "bytes32"
        },
        {
          "internalType": "bytes",
          "name": "signature",
          "type": "bytes"
        },
        {
          "internalType": "bool",
          "name": "isIssued",
          "type": "bool"
        },
        {
          "internalType": "bool",
          "name": "isRevoked",
          "type": "bool"
        }
      ],
      "stateMutability": "view",
      "type": "function"
    },
    {
      "inputs": [
        {
          "internalType": "address",
          "name": "recipient",
          "type": "address"
        },
        {
          "internalType": "string",
          "name": "encryptedCID",
          "type": "string"
        },
        {
          "internalType": "bytes32",
          "name": "dataHash",
          "type": "bytes32"
        },
        {
          "internalType": "bytes",
          "name": "signature",
          "type": "bytes"
        }
      ],
      "name": "issueCertificate",
      "outputs": [],
      "stateMutability": "nonpayable",
      "type": "function"
    },
    {
      "inputs": [],
      "name": "owner",
      "outputs": [
        {
          "internalType": "address",
          "name": "",
          "type": "address"
        }
      ],
      "stateMutability": "view",
      "type": "function"
    },
    {
      "inputs": [
        {
          "internalType": "uint256",
          "name": "",
          "type": "uint256"
        }
      ],
      "name": "recipients",
      "outputs": [
        {
          "internalType": "address",
          "name": "",
          "type": "address"
        }
      ],
      "stateMutability": "view",
      "type": "function"
    },
    {
      "inputs": [
        {
          "internalType": "address",
          "name": "recipient",
          "type": "address"
        }
      ],
      "name": "revokeCertificate",
      "outputs": [],
      "stateMutability": "nonpayable",
      "type": "function"
    },
    {
      "inputs": [
        {
          "internalType": "address",
          "name": "recipient",
          "type": "address"
        },
        {
          "internalType": "string",
          "name": "encryptedCID",
          "type": "string"
        },
        {
          "internalType": "bytes32",
          "name": "dataHash",
          "type": "bytes32"
        },
        {
          "internalType": "bytes",
          "name": "signature",
          "type": "bytes"
        }
      ],
      "name": "updateCertificate",
      "outputs": [],
      "stateMutability": "nonpayable",
      "type": "function"
    },
    {
      "inputs": [
        {
          "internalType": "address",
          "name": "recipient",
          "type": "address"
        }
      ],
      "name": "verifyCertificate",
      "outputs": [
        {
          "internalType": "bool",
          "name": "",
          "type": "bool"
        }
      ],
      "stateMutability": "view",
      "type": "function"
    },
    {
      "inputs": [
        {
          "internalType": "address",
          "name": "studentAddress",
          "type": "address"
        }
      ],
      "name": "viewCertificate",
      "outputs": [
        {
          "internalType": "string",
          "name": "encryptedCID",
          "type": "string"
        },
        {
          "internalType": "bytes32",
          "name": "dataHash",
          "type": "bytes32"
        },
        {
          "internalType": "bytes",
          "name": "signature",
          "type": "bytes"
        }
      ],
      "stateMutability": "view",
      "type": "function"
    }
  ],
  "bytecode": "0x608060405234801561001057600080fd5b50336000806101000a81548173ffffffffffffffffffffffffffffffffffffffff021916908373ffffffffffffffffffffffffffffffffffffffff160217905550611f4d806100606000396000f3fe608060405234801561001057600080fd5b50600436106100875760003560e01c80638da5cb5b1161005b5780638da5cb5b1461013f5780638dce674a1461015d578063cbe26a2a14610179578063d1bc76a11461019557610087565b806216e5261461008c5780635f893bfa146100c157806364dbbaa2146100dd5780636b9afc901461010f575b600080fd5b6100a660048036038101906100a191906110cd565b6101c5565b6040516100b896959493929190611222565b60405180910390f35b6100db60048036038101906100d691906110cd565b61034b565b005b6100f760048036038101906100f291906110cd565b610553565b60405161010693929190611291565b60405180910390f35b610129600480360381019061012491906110cd565b6108a5565b60405161013691906112d6565b60405180910390f35b610147610a95565b60405161015491906112f1565b60405180910390f35b6101776004803603810190610172919061150e565b610ab9565b005b610193600480360381019061018e919061150e565b610c87565b005b6101af60048036038101906101aa91906115e3565b61101c565b6040516101bc91906112f1565b60405180910390f35b60016020528060005260406000206000915090508060000160009054906101000a900473ffffffffffffffffffffffffffffffffffffffff169080600101805461020e9061163f565b80601f016020809104026020016040519081016040528092919081815260200182805461023a9061163f565b80156102875780601f1061025c57610100808354040283529160200191610287565b820191906000526020600020905b81548152906001019060200180831161026a57829003601f168201915b5050505050908060020154908060030180546102a29061163f565b80601f01602080910402602001604051908101604052809291908181526020018280546102ce9061163f565b801561031b5780601f106102f05761010080835404028352916020019161031b565b820191906000526020600020905b8154815290600101906020018083116102fe57829003601f168201915b5050505050908060040160009054906101000a900460ff16908060040160019054906101000a900460ff16905086565b60008054906101000a900473ffffffffffffffffffffffffffffffffffffffff1673ffffffffffffffffffffffffffffffffffffffff163373ffffffffffffffffffffffffffffffffffffffff16146103d9576040517f08c379a00000000000000000000000000000000000000000000000000000000081526004016103d0906116e2565b60405180910390fd5b60008054906101000a900473ffffffffffffffffffffffffffffffffffffffff1673ffffffffffffffffffffffffffffffffffffffff163373ffffffffffffffffffffffffffffffffffffffff1614610467576040517f08c379a000000000000000000000000000000000000000000000000000000000815260040161045e90611774565b60405180910390fd5b600160008273ffffffffffffffffffffffffffffffffffffffff1673ffffffffffffffffffffffffffffffffffffffff16815260200190815260200160002060040160009054906101000a900460ff166104f6576040517f08c379a00000000000000000000000000000000000000000000000000000000081526004016104ed90611806565b60405180910390fd5b60018060008373ffffffffffffffffffffffffffffffffffffffff1673ffffffffffffffffffffffffffffffffffffffff16815260200190815260200160002060040160016101000a81548160ff02191690831515021790555050565b6060600060608373ffffffffffffffffffffffffffffffffffffffff16600160008673ffffffffffffffffffffffffffffffffffffffff1673ffffffffffffffffffffffffffffffffffffffff16815260200190815260200160002060000160009054906101000a900473ffffffffffffffffffffffffffffffffffffffff1673ffffffffffffffffffffffffffffffffffffffff1614610629576040517f08c379a000000000000000000000000000000000000000000000000000000000815260040161062090611898565b60405180910390fd5b600160008573ffffffffffffffffffffffffffffffffffffffff1673ffffffffffffffffffffffffffffffffffffffff16815260200190815260200160002060040160019054906101000a900460ff16156106b9576040517f08c379a00000000000000000000000000000000000000000000000000000000081526004016106b09061192a565b60405180910390fd5b600160008573ffffffffffffffffffffffffffffffffffffffff1673ffffffffffffffffffffffffffffffffffffffff168152602001908152602001600020600101600160008673ffffffffffffffffffffffffffffffffffffffff1673ffffffffffffffffffffffffffffffffffffffff16815260200190815260200160002060020154600160008773ffffffffffffffffffffffffffffffffffffffff1673ffffffffffffffffffffffffffffffffffffffff16815260200190815260200160002060030182805461078c9061163f565b80601f01602080910402602001604051908101604052809291908181526020018280546107b89061163f565b80156108055780601f106107da57610100808354040283529160200191610805565b820191906000526020600020905b8154815290600101906020018083116107e857829003601f168201915b505050505092508080546108189061163f565b80601f01602080910402602001604051908101604052809291908181526020018280546108449061163f565b80156108915780601f1061086657610100808354040283529160200191610891565b820191906000526020600020905b81548152906001019060200180831161087457829003601f168201915b505050505090509250925092509193909250565b60008073ffffffffffffffffffffffffffffffffffffffff168273ffffffffffffffffffffffffffffffffffffffff1603610915576040517f08c379a000000000000000000000000000000000000000000000000000000000815260040161090c90611996565b60405180910390fd5b8173ffffffffffffffffffffffffffffffffffffffff16600160008473ffffffffffffffffffffffffffffffffffffffff1673ffffffffffffffffffffffffffffffffffffffff16815260200190815260200160002060000160009054906101000a900473ffffffffffffffffffffffffffffffffffffffff1673ffffffffffffffffffffffffffffffffffffffff16146109e5576040517f08c379a00000000000000000000000000000000000000000000000000000000081526004016109dc90611a28565b60405180910390fd5b600160008373ffffffffffffffffffffffffffffffffffffffff1673ffffffffffffffffffffffffffffffffffffffff16815260200190815260200160002060040160009054906101000a900460ff168015610a8e5750600160008373ffffffffffffffffffffffffffffffffffffffff1673ffffffffffffffffffffffffffffffffffffffff16815260200190815260200160002060040160019054906101000a900460ff16155b9050919050565b60008054906101000a900473ffffffffffffffffffffffffffffffffffffffff1681565b600073ffffffffffffffffffffffffffffffffffffffff168473ffffffffffffffffffffffffffffffffffffffff1603610b28576040517f08c379a0000000000000000000000000000000000000000000000000000000008152600401610b1f90611996565b60405180910390fd5b600160008573ffffffffffffffffffffffffffffffffffffffff1673ffffffffffffffffffffffffffffffffffffffff16815260200190815260200160002060040160009054906101000a900460ff168015610bd15750600160008573ffffffffffffffffffffffffffffffffffffffff1673ffffffffffffffffffffffffffffffffffffffff16815260200190815260200160002060040160019054906101000a900460ff16155b610c10576040517f08c379a0000000000000000000000000000000000000000000000000000000008152600401610c0790611aba565b60405180910390fd5b6000600160008673ffffffffffffffffffffffffffffffffffffffff1673ffffffffffffffffffffffffffffffffffffffff168152602001908152602001600020905083816001019081610c649190611c86565b5082816002018190555081816003019081610c7f9190611db3565b505050505050565b60008054906101000a900473ffffffffffffffffffffffffffffffffffffffff1673ffffffffffffffffffffffffffffffffffffffff163373ffffffffffffffffffffffffffffffffffffffff1614610d15576040517f08c379a0000000000000000000000000000000000000000000000000000000008152600401610d0c906116e2565b60405180910390fd5b600073ffffffffffffffffffffffffffffffffffffffff168473ffffffffffffffffffffffffffffffffffffffff1603610d84576040517f08c379a0000000000000000000000000000000000000000000000000000000008152600401610d7b90611996565b60405180910390fd5b6002849080600181540180825580915050600190039060005260206000200160009091909190916101000a81548173ffffffffffffffffffffffffffffffffffffffff021916908373ffffffffffffffffffffffffffffffffffffffff160217905550600160008573ffffffffffffffffffffffffffffffffffffffff1673ffffffffffffffffffffffffffffffffffffffff16815260200190815260200160002060040160009054906101000a900460ff161580610e8f5750600160008573ffffffffffffffffffffffffffffffffffffffff1673ffffffffffffffffffffffffffffffffffffffff16815260200190815260200160002060040160019054906101000a900460ff165b610ece576040517f08c379a0000000000000000000000000000000000000000000000000000000008152600401610ec590611ef7565b60405180910390fd5b6040518060c001604052808573ffffffffffffffffffffffffffffffffffffffff16815260200184815260200183815260200182815260200160011515815260200160001515815250600160008673ffffffffffffffffffffffffffffffffffffffff1673ffffffffffffffffffffffffffffffffffffffff16815260200190815260200160002060008201518160000160006101000a81548173ffffffffffffffffffffffffffffffffffffffff021916908373ffffffffffffffffffffffffffffffffffffffff1602179055506020820151816001019081610fb29190611c86565b50604082015181600201556060820151816003019081610fd29190611db3565b5060808201518160040160006101000a81548160ff02191690831515021790555060a08201518160040160016101000a81548160ff02191690831515021790555090505050505050565b6002818154811061102c57600080fd5b906000526020600020016000915054906101000a900473ffffffffffffffffffffffffffffffffffffffff1681565b6000604051905090565b600080fd5b600080fd5b600073ffffffffffffffffffffffffffffffffffffffff82169050919050565b600061109a8261106f565b9050919050565b6110aa8161108f565b81146110b557600080fd5b50565b6000813590506110c7816110a1565b92915050565b6000602082840312156110e3576110e2611065565b5b60006110f1848285016110b8565b91505092915050565b6111038161108f565b82525050565b600081519050919050565b600082825260208201905092915050565b60005b83811015611143578082015181840152602081019050611128565b60008484015250505050565b6000601f19601f8301169050919050565b600061116b82611109565b6111758185611114565b9350611185818560208601611125565b61118e8161114f565b840191505092915050565b6000819050919050565b6111ac81611199565b82525050565b600081519050919050565b600082825260208201905092915050565b60006111d9826111b2565b6111e381856111bd565b93506111f3818560208601611125565b6111fc8161114f565b840191505092915050565b60008115159050919050565b61121c81611207565b82525050565b600060c08201905061123760008301896110fa565b81810360208301526112498188611160565b905061125860408301876111a3565b818103606083015261126a81866111ce565b90506112796080830185611213565b61128660a0830184611213565b979650505050505050565b600060608201905081810360008301526112ab8186611160565b90506112ba60208301856111a3565b81810360408301526112cc81846111ce565b9050949350505050565b60006020820190506112eb6000830184611213565b92915050565b600060208201905061130660008301846110fa565b92915050565b600080fd5b600080fd5b7f4e487b7100000000000000000000000000000000000000000000000000000000600052604160045260246000fd5b61134e8261114f565b810181811067ffffffffffffffff8211171561136d5761136c611316565b5b80604052505050565b600061138061105b565b905061138c8282611345565b919050565b600067ffffffffffffffff8211156113ac576113ab611316565b5b6113b58261114f565b9050602081019050919050565b82818337600083830152505050565b60006113e46113df84611391565b611376565b905082815260208101848484011115611400576113ff611311565b5b61140b8482856113c2565b509392505050565b600082601f8301126114285761142761130c565b5b81356114388482602086016113d1565b91505092915050565b61144a81611199565b811461145557600080fd5b50565b60008135905061146781611441565b92915050565b600067ffffffffffffffff82111561148857611487611316565b5b6114918261114f565b9050602081019050919050565b60006114b16114ac8461146d565b611376565b9050828152602081018484840111156114cd576114cc611311565b5b6114d88482856113c2565b509392505050565b600082601f8301126114f5576114f461130c565b5b813561150584826020860161149e565b91505092915050565b6000806000806080858703121561152857611527611065565b5b6000611536878288016110b8565b945050602085013567ffffffffffffffff8111156115575761155661106a565b5b61156387828801611413565b935050604061157487828801611458565b925050606085013567ffffffffffffffff8111156115955761159461106a565b5b6115a1878288016114e0565b91505092959194509250565b6000819050919050565b6115c0816115ad565b81146115cb57600080fd5b50565b6000813590506115dd816115b7565b92915050565b6000602082840312156115f9576115f8611065565b5b6000611607848285016115ce565b91505092915050565b7f4e487b7100000000000000000000000000000000000000000000000000000000600052602260045260246000fd5b6000600282049050600182168061165757607f821691505b60208210810361166a57611669611610565b5b50919050565b7f4f6e6c792074686520556e69766572736974792063616e2063616c6c2074686960008201527f732066756e6374696f6e00000000000000000000000000000000000000000000602082015250565b60006116cc602a83611114565b91506116d782611670565b604082019050919050565b600060208201905081810360008301526116fb816116bf565b9050919050565b7f4f6e6c792074686520556e69766572736974792063616e207265766f6b65206360008201527f6572746966696361746573000000000000000000000000000000000000000000602082015250565b600061175e602b83611114565b915061176982611702565b604082019050919050565b6000602082019050818103600083015261178d81611751565b9050919050565b7f4365727469666963617465206e6f7420697373756564206f7220616c7265616460008201527f79207265766f6b65640000000000000000000000000000000000000000000000602082015250565b60006117f0602983611114565b91506117fb82611794565b604082019050919050565b6000602082019050818103600083015261181f816117e3565b9050919050565b7f4e6f20636572746966696361746520666f756e6420666f72207468697320737460008201527f7564656e74000000000000000000000000000000000000000000000000000000602082015250565b6000611882602583611114565b915061188d82611826565b604082019050919050565b600060208201905081810360008301526118b181611875565b9050919050565b7f5468697320636572746966696361746520686173206265656e207265766f6b6560008201527f6400000000000000000000000000000000000000000000000000000000000000602082015250565b6000611914602183611114565b915061191f826118b8565b604082019050919050565b6000602082019050818103600083015261194381611907565b9050919050565b7f496e76616c696420726563697069656e74206164647265737300000000000000600082015250565b6000611980601983611114565b915061198b8261194a565b602082019050919050565b600060208201905081810360008301526119af81611973565b9050919050565b7f4e6f20636572746966696361746520666f756e6420666f72207468697320726560008201527f63697069656e7400000000000000000000000000000000000000000000000000602082015250565b6000611a12602783611114565b9150611a1d826119b6565b604082019050919050565b60006020820190508181036000830152611a4181611a05565b9050919050565b7f4365727469666963617465206e6f7420697373756564206f7220616c7265616460008201527f79207265766f6b656420666f72207468697320726563697069656e7400000000602082015250565b6000611aa4603c83611114565b9150611aaf82611a48565b604082019050919050565b60006020820190508181036000830152611ad381611a97565b9050919050565b60008190508160005260206000209050919050565b60006020601f8301049050919050565b600082821b905092915050565b600060088302611b3c7fffffffffffffffffffffffffffffffffffffffffffffffffffffffffffffffff82611aff565b611b468683611aff565b95508019841693508086168417925050509392505050565b6000819050919050565b6000611b83611b7e611b79846115ad565b611b5e565b6115ad565b9050919050565b6000819050919050565b611b9d83611b68565b611bb1611ba982611b8a565b848454611b0c565b825550505050565b600090565b611bc6611bb9565b611bd1818484611b94565b505050565b5b81811015611bf557611bea600082611bbe565b600181019050611bd7565b5050565b601f821115611c3a57611c0b81611ada565b611c1484611aef565b81016020851015611c23578190505b611c37611c2f85611aef565b830182611bd6565b50505b505050565b600082821c905092915050565b6000611c5d60001984600802611c3f565b1980831691505092915050565b6000611c768383611c4c565b9150826002028217905092915050565b611c8f82611109565b67ffffffffffffffff811115611ca857611ca7611316565b5b611cb2825461163f565b611cbd828285611bf9565b600060209050601f831160018114611cf05760008415611cde578287015190505b611ce88582611c6a565b865550611d50565b601f198416611cfe86611ada565b60005b82811015611d2657848901518255600182019150602085019450602081019050611d01565b86831015611d435784890151611d3f601f891682611c4c565b8355505b6001600288020188555050505b505050505050565b60008190508160005260206000209050919050565b601f821115611dae57611d7f81611d58565b611d8884611aef565b81016020851015611d97578190505b611dab611da385611aef565b830182611bd6565b50505b505050565b611dbc826111b2565b67ffffffffffffffff811115611dd557611dd4611316565b5b611ddf825461163f565b611dea828285611d6d565b600060209050601f831160018114611e1d5760008415611e0b578287015190505b611e158582611c6a565b865550611e7d565b601f198416611e2b86611d58565b60005b82811015611e5357848901518255600182019150602085019450602081019050611e2e565b86831015611e705784890151611e6c601f891682611c4c565b8355505b6001600288020188555050505b505050505050565b7f436572746966696361746520616c726561647920697373756564206f7220726560008201527f766f6b656420666f72207468697320726563697069656e740000000000000000602082015250565b6000611ee1603883611114565b9150611eec82611e85565b604082019050919050565b60006020820190508181036000830152611f1081611ed4565b905091905056fea2646970667358221220e963307d288be9f288e92b8e7e731d6750b1a3fb802e46981eb77ea4bb556dcd64736f6c63430008130033",
  "linkReferences": {},
  "deployedLinkReferences": {}
}